{
  "_format": "hh-sol-artifact-1",
  "contractName": "HealthInsurance",
  "sourceName": "contracts/HealthInsurance.sol",
  "abi": [
    {
      "inputs": [
        {
          "internalType": "address",
          "name": "_verifiedAddress",
          "type": "address"
        }
      ],
      "stateMutability": "nonpayable",
      "type": "constructor"
    },
    {
      "anonymous": false,
      "inputs": [
        {
          "indexed": false,
          "internalType": "string",
          "name": "planType",
          "type": "string"
        },
        {
          "indexed": false,
          "internalType": "uint256",
          "name": "coveragePercentage",
          "type": "uint256"
        },
        {
          "indexed": false,
          "internalType": "uint256",
          "name": "price",
          "type": "uint256"
        },
        {
          "indexed": false,
          "internalType": "uint256",
          "name": "duration",
          "type": "uint256"
        }
      ],
      "name": "InsurancePlanAdded",
      "type": "event"
    },
    {
      "anonymous": false,
      "inputs": [
        {
          "indexed": true,
          "internalType": "address",
          "name": "user",
          "type": "address"
        },
        {
          "indexed": false,
          "internalType": "string",
          "name": "planType",
          "type": "string"
        },
        {
          "indexed": false,
          "internalType": "uint256",
          "name": "startDate",
          "type": "uint256"
        },
        {
          "indexed": false,
          "internalType": "uint256",
          "name": "endDate",
          "type": "uint256"
        }
      ],
      "name": "InsurancePurchased",
      "type": "event"
    },
    {
      "anonymous": false,
      "inputs": [
        {
          "indexed": false,
          "internalType": "string",
          "name": "medicationId",
          "type": "string"
        },
        {
          "indexed": false,
          "internalType": "string",
          "name": "name",
          "type": "string"
        },
        {
          "indexed": false,
          "internalType": "uint256",
          "name": "originalPrice",
          "type": "uint256"
        }
      ],
      "name": "MedicationAdded",
      "type": "event"
    },
    {
      "anonymous": false,
      "inputs": [
        {
          "indexed": true,
          "internalType": "address",
          "name": "user",
          "type": "address"
        },
        {
          "indexed": false,
          "internalType": "string",
          "name": "medicationId",
          "type": "string"
        },
        {
          "indexed": false,
          "internalType": "uint256",
          "name": "coveredPrice",
          "type": "uint256"
        },
        {
          "indexed": false,
          "internalType": "uint256",
          "name": "coPayAmount",
          "type": "uint256"
        }
      ],
      "name": "MedicationPurchased",
      "type": "event"
    },
    {
      "inputs": [
        {
          "internalType": "string",
          "name": "planType",
          "type": "string"
        },
        {
          "internalType": "uint256",
          "name": "coveragePercentage",
          "type": "uint256"
        },
        {
          "internalType": "uint256",
          "name": "price",
          "type": "uint256"
        },
        {
          "internalType": "uint256",
          "name": "duration",
          "type": "uint256"
        }
      ],
      "name": "addInsurancePlan",
      "outputs": [],
      "stateMutability": "nonpayable",
      "type": "function"
    },
    {
      "inputs": [
        {
          "internalType": "string",
          "name": "medicationId",
          "type": "string"
        },
        {
          "internalType": "string",
          "name": "name",
          "type": "string"
        },
        {
          "internalType": "uint256",
          "name": "originalPrice",
          "type": "uint256"
        }
      ],
      "name": "addMedication",
      "outputs": [],
      "stateMutability": "nonpayable",
      "type": "function"
    },
    {
      "inputs": [],
      "name": "getAvailableInsurancePlans",
      "outputs": [
        {
          "components": [
            {
              "internalType": "string",
              "name": "planType",
              "type": "string"
            },
            {
              "internalType": "uint256",
              "name": "coveragePercentage",
              "type": "uint256"
            },
            {
              "internalType": "uint256",
              "name": "price",
              "type": "uint256"
            },
            {
              "internalType": "uint256",
              "name": "duration",
              "type": "uint256"
            },
            {
              "internalType": "bool",
              "name": "isActive",
              "type": "bool"
            }
          ],
          "internalType": "struct HealthInsurance.InsurancePlan",
          "name": "basic",
          "type": "tuple"
        },
        {
          "components": [
            {
              "internalType": "string",
              "name": "planType",
              "type": "string"
            },
            {
              "internalType": "uint256",
              "name": "coveragePercentage",
              "type": "uint256"
            },
            {
              "internalType": "uint256",
              "name": "price",
              "type": "uint256"
            },
            {
              "internalType": "uint256",
              "name": "duration",
              "type": "uint256"
            },
            {
              "internalType": "bool",
              "name": "isActive",
              "type": "bool"
            }
          ],
          "internalType": "struct HealthInsurance.InsurancePlan",
          "name": "standard",
          "type": "tuple"
        },
        {
          "components": [
            {
              "internalType": "string",
              "name": "planType",
              "type": "string"
            },
            {
              "internalType": "uint256",
              "name": "coveragePercentage",
              "type": "uint256"
            },
            {
              "internalType": "uint256",
              "name": "price",
              "type": "uint256"
            },
            {
              "internalType": "uint256",
              "name": "duration",
              "type": "uint256"
            },
            {
              "internalType": "bool",
              "name": "isActive",
              "type": "bool"
            }
          ],
          "internalType": "struct HealthInsurance.InsurancePlan",
          "name": "premium",
          "type": "tuple"
        }
      ],
      "stateMutability": "view",
      "type": "function"
    },
    {
      "inputs": [
        {
          "internalType": "string",
          "name": "medicationId",
          "type": "string"
        },
        {
          "internalType": "address",
          "name": "user",
          "type": "address"
        }
      ],
      "name": "getMedicationCoverage",
      "outputs": [
        {
          "internalType": "uint256",
          "name": "originalPrice",
          "type": "uint256"
        },
        {
          "internalType": "uint256",
          "name": "coveredPrice",
          "type": "uint256"
        },
        {
          "internalType": "uint256",
          "name": "coPayAmount",
          "type": "uint256"
        },
        {
          "internalType": "bool",
          "name": "hasCoverage",
          "type": "bool"
        }
      ],
      "stateMutability": "view",
      "type": "function"
    },
    {
      "inputs": [
        {
          "internalType": "string",
          "name": "medicationId",
          "type": "string"
        }
      ],
      "name": "getMedicationDetails",
      "outputs": [
        {
          "internalType": "string",
          "name": "id",
          "type": "string"
        },
        {
          "internalType": "string",
          "name": "name",
          "type": "string"
        },
        {
          "internalType": "uint256",
          "name": "price",
          "type": "uint256"
        }
      ],
      "stateMutability": "view",
      "type": "function"
    },
    {
      "inputs": [
        {
          "internalType": "address",
          "name": "user",
          "type": "address"
        }
      ],
      "name": "getMedicationPurchaseHistory",
      "outputs": [
        {
          "components": [
            {
              "internalType": "string",
              "name": "medicationId",
              "type": "string"
            },
            {
              "internalType": "uint256",
              "name": "originalPrice",
              "type": "uint256"
            },
            {
              "internalType": "uint256",
              "name": "coveredPrice",
              "type": "uint256"
            },
            {
              "internalType": "uint256",
              "name": "coPayAmount",
              "type": "uint256"
            },
            {
              "internalType": "uint256",
              "name": "purchaseDate",
              "type": "uint256"
            }
          ],
          "internalType": "struct HealthInsurance.MedicationPurchase[]",
          "name": "",
          "type": "tuple[]"
        }
      ],
      "stateMutability": "view",
      "type": "function"
    },
    {
      "inputs": [
        {
          "internalType": "address",
          "name": "user",
          "type": "address"
        }
      ],
      "name": "getUserInsurance",
      "outputs": [
        {
          "internalType": "string",
          "name": "planType",
          "type": "string"
        },
        {
          "internalType": "uint256",
          "name": "startDate",
          "type": "uint256"
        },
        {
          "internalType": "uint256",
          "name": "endDate",
          "type": "uint256"
        },
        {
          "internalType": "bool",
          "name": "isActive",
          "type": "bool"
        },
        {
          "internalType": "bool",
          "name": "hasActiveInsurance",
          "type": "bool"
        }
      ],
      "stateMutability": "view",
      "type": "function"
    },
    {
      "inputs": [
        {
          "internalType": "string",
          "name": "",
          "type": "string"
        }
      ],
      "name": "insurancePlans",
      "outputs": [
        {
          "internalType": "string",
          "name": "planType",
          "type": "string"
        },
        {
          "internalType": "uint256",
          "name": "coveragePercentage",
          "type": "uint256"
        },
        {
          "internalType": "uint256",
          "name": "price",
          "type": "uint256"
        },
        {
          "internalType": "uint256",
          "name": "duration",
          "type": "uint256"
        },
        {
          "internalType": "bool",
          "name": "isActive",
          "type": "bool"
        }
      ],
      "stateMutability": "view",
      "type": "function"
    },
    {
      "inputs": [
        {
          "internalType": "string",
          "name": "medicationId",
          "type": "string"
        }
      ],
      "name": "isMedicationAvailable",
      "outputs": [
        {
          "internalType": "bool",
          "name": "",
          "type": "bool"
        }
      ],
      "stateMutability": "view",
      "type": "function"
    },
    {
      "inputs": [
        {
          "internalType": "address",
          "name": "",
          "type": "address"
        },
        {
          "internalType": "uint256",
          "name": "",
          "type": "uint256"
        }
      ],
      "name": "medicationPurchaseHistory",
      "outputs": [
        {
          "internalType": "string",
          "name": "medicationId",
          "type": "string"
        },
        {
          "internalType": "uint256",
          "name": "originalPrice",
          "type": "uint256"
        },
        {
          "internalType": "uint256",
          "name": "coveredPrice",
          "type": "uint256"
        },
        {
          "internalType": "uint256",
          "name": "coPayAmount",
          "type": "uint256"
        },
        {
          "internalType": "uint256",
          "name": "purchaseDate",
          "type": "uint256"
        }
      ],
      "stateMutability": "view",
      "type": "function"
    },
    {
      "inputs": [
        {
          "internalType": "string",
          "name": "",
          "type": "string"
        }
      ],
      "name": "medications",
      "outputs": [
        {
          "internalType": "string",
          "name": "medicationId",
          "type": "string"
        },
        {
          "internalType": "string",
          "name": "name",
          "type": "string"
        },
        {
          "internalType": "uint256",
          "name": "originalPrice",
          "type": "uint256"
        },
        {
          "internalType": "bool",
          "name": "exists",
          "type": "bool"
        }
      ],
      "stateMutability": "view",
      "type": "function"
    },
    {
      "inputs": [],
      "name": "owner",
      "outputs": [
        {
          "internalType": "address",
          "name": "",
          "type": "address"
        }
      ],
      "stateMutability": "view",
      "type": "function"
    },
    {
      "inputs": [
        {
          "internalType": "string",
          "name": "planType",
          "type": "string"
        }
      ],
      "name": "purchaseInsurance",
      "outputs": [],
      "stateMutability": "payable",
      "type": "function"
    },
    {
      "inputs": [
        {
          "internalType": "string",
          "name": "medicationId",
          "type": "string"
        }
      ],
      "name": "purchaseMedication",
      "outputs": [],
      "stateMutability": "payable",
      "type": "function"
    },
    {
      "inputs": [
        {
          "internalType": "address",
          "name": "",
          "type": "address"
        }
      ],
      "name": "userInsurances",
      "outputs": [
        {
          "internalType": "string",
          "name": "planType",
          "type": "string"
        },
        {
          "internalType": "uint256",
          "name": "startDate",
          "type": "uint256"
        },
        {
          "internalType": "uint256",
          "name": "endDate",
          "type": "uint256"
        },
        {
          "internalType": "bool",
          "name": "isActive",
          "type": "bool"
        }
      ],
      "stateMutability": "view",
      "type": "function"
    },
    {
      "inputs": [],
      "name": "verifiedAddress",
      "outputs": [
        {
          "internalType": "address",
          "name": "",
          "type": "address"
        }
      ],
      "stateMutability": "view",
      "type": "function"
    }
  ],
  "bytecode": "0x60806040523480156200001157600080fd5b5060405162003fd238038062003fd2833981810160405281019062000037919062000684565b336000806101000a81548173ffffffffffffffffffffffffffffffffffffffff021916908373ffffffffffffffffffffffffffffffffffffffff16021790555080600160006101000a81548173ffffffffffffffffffffffffffffffffffffffff021916908373ffffffffffffffffffffffffffffffffffffffff1602179055506200010c6040518060400160405280600581526020017f4261736963000000000000000000000000000000000000000000000000000000815250603c662386f26fc1000062278d006200044f60201b60201c565b620001606040518060400160405280600881526020017f5374616e64617264000000000000000000000000000000000000000000000000815250605066470de4df82000062278d006200044f60201b60201c565b620001b46040518060400160405280600781526020017f5072656d69756d00000000000000000000000000000000000000000000000000815250605a666a94d74f43000062278d006200044f60201b60201c565b620002386040518060400160405280600681526020017f4d454430303100000000000000000000000000000000000000000000000000008152506040518060400160405280600781526020017f4173706972696e000000000000000000000000000000000000000000000000008152506611c37937e080006200053760201b60201c565b620002bc6040518060400160405280600681526020017f4d454430303200000000000000000000000000000000000000000000000000008152506040518060400160405280600b81526020017f416d6f786963696c6c696e000000000000000000000000000000000000000000815250662386f26fc100006200053760201b60201c565b620003406040518060400160405280600681526020017f4d454430303300000000000000000000000000000000000000000000000000008152506040518060400160405280600781526020017f4c697069746f720000000000000000000000000000000000000000000000000081525066470de4df8200006200053760201b60201c565b620003c46040518060400160405280600681526020017f4d454430303400000000000000000000000000000000000000000000000000008152506040518060400160405280600781526020017f496e73756c696e000000000000000000000000000000000000000000000000008152506658d15e176280006200053760201b60201c565b620004486040518060400160405280600681526020017f4d454430303500000000000000000000000000000000000000000000000000008152506040518060400160405280600981526020017f49627570726f66656e0000000000000000000000000000000000000000000000815250660e35fa931a00006200053760201b60201c565b5062000bb1565b6040518060a00160405280858152602001848152602001838152602001828152602001600115158152506002856040516200048b91906200072f565b90815260200160405180910390206000820151816000019081620004b09190620009b7565b5060208201518160010155604082015181600201556060820151816003015560808201518160040160006101000a81548160ff0219169083151502179055509050507faeeb89adcaac17eaddcd7f45eeb705b6e4c205a23d0ce589f03f800a7e09c7f98484848460405162000529949392919062000b12565b60405180910390a150505050565b6040518060800160405280848152602001838152602001828152602001600115158152506003846040516200056d91906200072f565b90815260200160405180910390206000820151816000019081620005929190620009b7565b506020820151816001019081620005aa9190620009b7565b506040820151816002015560608201518160030160006101000a81548160ff0219169083151502179055509050507f046dd1a41657eaa65ad2eeefdfbb46a64931e27005eacb993208ccdcf0b5a3c88383836040516200060d9392919062000b66565b60405180910390a1505050565b600080fd5b600073ffffffffffffffffffffffffffffffffffffffff82169050919050565b60006200064c826200061f565b9050919050565b6200065e816200063f565b81146200066a57600080fd5b50565b6000815190506200067e8162000653565b92915050565b6000602082840312156200069d576200069c6200061a565b5b6000620006ad848285016200066d565b91505092915050565b600081519050919050565b600081905092915050565b60005b83811015620006ec578082015181840152602081019050620006cf565b60008484015250505050565b60006200070582620006b6565b620007118185620006c1565b935062000723818560208601620006cc565b80840191505092915050565b60006200073d8284620006f8565b915081905092915050565b7f4e487b7100000000000000000000000000000000000000000000000000000000600052604160045260246000fd5b7f4e487b7100000000000000000000000000000000000000000000000000000000600052602260045260246000fd5b60006002820490506001821680620007bf57607f821691505b602082108103620007d557620007d462000777565b5b50919050565b60008190508160005260206000209050919050565b60006020601f8301049050919050565b600082821b905092915050565b6000600883026200083f7fffffffffffffffffffffffffffffffffffffffffffffffffffffffffffffffff8262000800565b6200084b868362000800565b95508019841693508086168417925050509392505050565b6000819050919050565b6000819050919050565b600062000898620008926200088c8462000863565b6200086d565b62000863565b9050919050565b6000819050919050565b620008b48362000877565b620008cc620008c3826200089f565b8484546200080d565b825550505050565b600090565b620008e3620008d4565b620008f0818484620008a9565b505050565b5b8181101562000918576200090c600082620008d9565b600181019050620008f6565b5050565b601f82111562000967576200093181620007db565b6200093c84620007f0565b810160208510156200094c578190505b620009646200095b85620007f0565b830182620008f5565b50505b505050565b600082821c905092915050565b60006200098c600019846008026200096c565b1980831691505092915050565b6000620009a7838362000979565b9150826002028217905092915050565b620009c282620006b6565b67ffffffffffffffff811115620009de57620009dd62000748565b5b620009ea8254620007a6565b620009f78282856200091c565b600060209050601f83116001811462000a2f576000841562000a1a578287015190505b62000a26858262000999565b86555062000a96565b601f19841662000a3f86620007db565b60005b8281101562000a695784890151825560018201915060208501945060208101905062000a42565b8683101562000a89578489015162000a85601f89168262000979565b8355505b6001600288020188555050505b505050505050565b600082825260208201905092915050565b6000601f19601f8301169050919050565b600062000acd82620006b6565b62000ad9818562000a9e565b935062000aeb818560208601620006cc565b62000af68162000aaf565b840191505092915050565b62000b0c8162000863565b82525050565b6000608082019050818103600083015262000b2e818762000ac0565b905062000b3f602083018662000b01565b62000b4e604083018562000b01565b62000b5d606083018462000b01565b95945050505050565b6000606082019050818103600083015262000b82818662000ac0565b9050818103602083015262000b98818562000ac0565b905062000ba9604083018462000b01565b949350505050565b6134118062000bc16000396000f3fe6080604052600436106100f35760003560e01c80636b93295b1161008a578063a7d83b0e11610059578063a7d83b0e1461037a578063ae65009414610396578063bb533f3d146103d7578063bf4128fb14610400576100f3565b80636b93295b146102ac5780636c933b6a146102e95780638da5cb5b1461031257806397bc1e201461033d576100f3565b80632534426b116100c65780632534426b146101d55780632d735052146102155780633ada05ab146102425780633faf39e614610281576100f3565b806302ee3685146100f857806307d97e271461013857806313500ca0146101785780631f8b25b914610194575b600080fd5b34801561010457600080fd5b5061011f600480360381019061011a919061225f565b610441565b60405161012f94939291906122ef565b60405180910390f35b34801561014457600080fd5b5061015f600480360381019061015a9190612334565b6107fa565b60405161016f94939291906123e0565b60405180910390f35b610192600480360381019061018d919061242c565b6108bf565b005b3480156101a057600080fd5b506101bb60048036038101906101b6919061242c565b610c35565b6040516101cc959493929190612475565b60405180910390f35b3480156101e157600080fd5b506101fc60048036038101906101f7919061242c565b610d16565b60405161020c94939291906124cf565b60405180910390f35b34801561022157600080fd5b5061022a610e79565b60405161023993929190612600565b60405180910390f35b34801561024e57600080fd5b506102696004803603810190610264919061242c565b61117b565b6040516102789392919061264c565b60405180910390f35b34801561028d57600080fd5b50610296611383565b6040516102a391906126a0565b60405180910390f35b3480156102b857600080fd5b506102d360048036038101906102ce919061242c565b6113a9565b6040516102e091906126bb565b60405180910390f35b3480156102f557600080fd5b50610310600480360381019061030b9190612702565b6113e1565b005b34801561031e57600080fd5b5061032761147f565b60405161033491906126a0565b60405180910390f35b34801561034957600080fd5b50610364600480360381019061035f9190612334565b6114a3565b60405161037191906128c5565b60405180910390f35b610394600480360381019061038f919061242c565b6115fb565b005b3480156103a257600080fd5b506103bd60048036038101906103b891906128e7565b611be4565b6040516103ce959493929190612927565b60405180910390f35b3480156103e357600080fd5b506103fe60048036038101906103f99190612981565b611cbf565b005b34801561040c57600080fd5b5061042760048036038101906104229190612334565b611d5f565b604051610438959493929190612a04565b60405180910390f35b600080600080856003816040516104589190612a9a565b908152602001604051809103902060030160009054906101000a900460ff166104b6576040517f08c379a00000000000000000000000000000000000000000000000000000000081526004016104ad90612afd565b60405180910390fd5b6000600460008873ffffffffffffffffffffffffffffffffffffffff1673ffffffffffffffffffffffffffffffffffffffff16815260200190815260200160002060405180608001604052908160008201805461051290612b4c565b80601f016020809104026020016040519081016040528092919081815260200182805461053e90612b4c565b801561058b5780601f106105605761010080835404028352916020019161058b565b820191906000526020600020905b81548152906001019060200180831161056e57829003601f168201915b5050505050815260200160018201548152602001600282015481526020016003820160009054906101000a900460ff161515151581525050905060006003896040516105d79190612a9a565b908152602001604051809103902060405180608001604052908160008201805461060090612b4c565b80601f016020809104026020016040519081016040528092919081815260200182805461062c90612b4c565b80156106795780601f1061064e57610100808354040283529160200191610679565b820191906000526020600020905b81548152906001019060200180831161065c57829003601f168201915b5050505050815260200160018201805461069290612b4c565b80601f01602080910402602001604051908101604052809291908181526020018280546106be90612b4c565b801561070b5780601f106106e05761010080835404028352916020019161070b565b820191906000526020600020905b8154815290600101906020018083116106ee57829003601f168201915b50505050508152602001600282015481526020016003820160009054906101000a900460ff1615151515815250509050600082606001518015610752575042836040015110155b90508061077a57816040015182604001518360400151600097509750975097505050506107f0565b6000600284600001516040516107909190612a9a565b9081526020016040518091039020600101549050600060648285604001516107b89190612bac565b6107c29190612c1d565b905060008185604001516107d69190612c4e565b90508460400151828260019a509a509a509a505050505050505b5092959194509250565b600460205280600052604060002060009150905080600001805461081d90612b4c565b80601f016020809104026020016040519081016040528092919081815260200182805461084990612b4c565b80156108965780601f1061086b57610100808354040283529160200191610896565b820191906000526020600020905b81548152906001019060200180831161087957829003601f168201915b5050505050908060010154908060020154908060030160009054906101000a900460ff16905084565b60006002826040516108d19190612a9a565b90815260200160405180910390206040518060a00160405290816000820180546108fa90612b4c565b80601f016020809104026020016040519081016040528092919081815260200182805461092690612b4c565b80156109735780601f1061094857610100808354040283529160200191610973565b820191906000526020600020905b81548152906001019060200180831161095657829003601f168201915b505050505081526020016001820154815260200160028201548152602001600382015481526020016004820160009054906101000a900460ff161515151581525050905080608001516109fb576040517f08c379a00000000000000000000000000000000000000000000000000000000081526004016109f290612cf4565b60405180910390fd5b8060400151341015610a42576040517f08c379a0000000000000000000000000000000000000000000000000000000008152600401610a3990612d86565b60405180910390fd5b6000600160009054906101000a900473ffffffffffffffffffffffffffffffffffffffff1673ffffffffffffffffffffffffffffffffffffffff1634604051610a8a90612dd7565b60006040518083038185875af1925050503d8060008114610ac7576040519150601f19603f3d011682016040523d82523d6000602084013e610acc565b606091505b5050905080610b10576040517f08c379a0000000000000000000000000000000000000000000000000000000008152600401610b0790612e38565b60405180910390fd5b6040518060800160405280848152602001428152602001836060015142610b379190612e58565b815260200160011515815250600460003373ffffffffffffffffffffffffffffffffffffffff1673ffffffffffffffffffffffffffffffffffffffff1681526020019081526020016000206000820151816000019081610b979190613038565b50602082015181600101556040820151816002015560608201518160030160006101000a81548160ff0219169083151502179055509050503373ffffffffffffffffffffffffffffffffffffffff167f90bde0bd79c1256e3acb1c092c1e049ce9b626c2d7c0451f140514806fd5227c8442856060015142610c199190612e58565b604051610c289392919061310a565b60405180910390a2505050565b600281805160208101820180518482526020830160208501208183528095505050505050600091509050806000018054610c6e90612b4c565b80601f0160208091040260200160405190810160405280929190818152602001828054610c9a90612b4c565b8015610ce75780601f10610cbc57610100808354040283529160200191610ce7565b820191906000526020600020905b815481529060010190602001808311610cca57829003601f168201915b5050505050908060010154908060020154908060030154908060040160009054906101000a900460ff16905085565b600381805160208101820180518482526020830160208501208183528095505050505050600091509050806000018054610d4f90612b4c565b80601f0160208091040260200160405190810160405280929190818152602001828054610d7b90612b4c565b8015610dc85780601f10610d9d57610100808354040283529160200191610dc8565b820191906000526020600020905b815481529060010190602001808311610dab57829003601f168201915b505050505090806001018054610ddd90612b4c565b80601f0160208091040260200160405190810160405280929190818152602001828054610e0990612b4c565b8015610e565780601f10610e2b57610100808354040283529160200191610e56565b820191906000526020600020905b815481529060010190602001808311610e3957829003601f168201915b5050505050908060020154908060030160009054906101000a900460ff16905084565b610e81612076565b610e89612076565b610e91612076565b6002604051610e9f90613194565b90815260200160405180910390206002604051610ebb906131f5565b90815260200160405180910390206002604051610ed790613256565b9081526020016040518091039020826040518060a0016040529081600082018054610f0190612b4c565b80601f0160208091040260200160405190810160405280929190818152602001828054610f2d90612b4c565b8015610f7a5780601f10610f4f57610100808354040283529160200191610f7a565b820191906000526020600020905b815481529060010190602001808311610f5d57829003601f168201915b505050505081526020016001820154815260200160028201548152602001600382015481526020016004820160009054906101000a900460ff1615151515815250509250816040518060a0016040529081600082018054610fda90612b4c565b80601f016020809104026020016040519081016040528092919081815260200182805461100690612b4c565b80156110535780601f1061102857610100808354040283529160200191611053565b820191906000526020600020905b81548152906001019060200180831161103657829003601f168201915b505050505081526020016001820154815260200160028201548152602001600382015481526020016004820160009054906101000a900460ff1615151515815250509150806040518060a00160405290816000820180546110b390612b4c565b80601f01602080910402602001604051908101604052809291908181526020018280546110df90612b4c565b801561112c5780601f106111015761010080835404028352916020019161112c565b820191906000526020600020905b81548152906001019060200180831161110f57829003601f168201915b505050505081526020016001820154815260200160028201548152602001600382015481526020016004820160009054906101000a900460ff1615151515815250509050925092509250909192565b6060806000836003816040516111919190612a9a565b908152602001604051809103902060030160009054906101000a900460ff166111ef576040517f08c379a00000000000000000000000000000000000000000000000000000000081526004016111e690612afd565b60405180910390fd5b60006003866040516112019190612a9a565b908152602001604051809103902060405180608001604052908160008201805461122a90612b4c565b80601f016020809104026020016040519081016040528092919081815260200182805461125690612b4c565b80156112a35780601f10611278576101008083540402835291602001916112a3565b820191906000526020600020905b81548152906001019060200180831161128657829003601f168201915b505050505081526020016001820180546112bc90612b4c565b80601f01602080910402602001604051908101604052809291908181526020018280546112e890612b4c565b80156113355780601f1061130a57610100808354040283529160200191611335565b820191906000526020600020905b81548152906001019060200180831161131857829003601f168201915b50505050508152602001600282015481526020016003820160009054906101000a900460ff161515151581525050905080600001518160200151826040015194509450945050509193909250565b600160009054906101000a900473ffffffffffffffffffffffffffffffffffffffff1681565b60006003826040516113bb9190612a9a565b908152602001604051809103902060030160009054906101000a900460ff169050919050565b60008054906101000a900473ffffffffffffffffffffffffffffffffffffffff1673ffffffffffffffffffffffffffffffffffffffff163373ffffffffffffffffffffffffffffffffffffffff161461146f576040517f08c379a0000000000000000000000000000000000000000000000000000000008152600401611466906132dd565b60405180910390fd5b61147a838383611eb9565b505050565b60008054906101000a900473ffffffffffffffffffffffffffffffffffffffff1681565b6060600560008373ffffffffffffffffffffffffffffffffffffffff1673ffffffffffffffffffffffffffffffffffffffff168152602001908152602001600020805480602002602001604051908101604052809291908181526020016000905b828210156115f057838290600052602060002090600502016040518060a001604052908160008201805461153790612b4c565b80601f016020809104026020016040519081016040528092919081815260200182805461156390612b4c565b80156115b05780601f10611585576101008083540402835291602001916115b0565b820191906000526020600020905b81548152906001019060200180831161159357829003601f168201915b5050505050815260200160018201548152602001600282015481526020016003820154815260200160048201548152505081526020019060010190611504565b505050509050919050565b8060038160405161160c9190612a9a565b908152602001604051809103902060030160009054906101000a900460ff1661166a576040517f08c379a000000000000000000000000000000000000000000000000000000000815260040161166190612afd565b60405180910390fd5b6000600460003373ffffffffffffffffffffffffffffffffffffffff1673ffffffffffffffffffffffffffffffffffffffff1681526020019081526020016000206040518060800160405290816000820180546116c690612b4c565b80601f01602080910402602001604051908101604052809291908181526020018280546116f290612b4c565b801561173f5780601f106117145761010080835404028352916020019161173f565b820191906000526020600020905b81548152906001019060200180831161172257829003601f168201915b5050505050815260200160018201548152602001600282015481526020016003820160009054906101000a900460ff1615151515815250509050600081606001518015611790575042826040015110155b905060006003856040516117a49190612a9a565b90815260200160405180910390206040518060800160405290816000820180546117cd90612b4c565b80601f01602080910402602001604051908101604052809291908181526020018280546117f990612b4c565b80156118465780601f1061181b57610100808354040283529160200191611846565b820191906000526020600020905b81548152906001019060200180831161182957829003601f168201915b5050505050815260200160018201805461185f90612b4c565b80601f016020809104026020016040519081016040528092919081815260200182805461188b90612b4c565b80156118d85780601f106118ad576101008083540402835291602001916118d8565b820191906000526020600020905b8154815290600101906020018083116118bb57829003601f168201915b50505050508152602001600282015481526020016003820160009054906101000a900460ff16151515158152505090506000808315611977576000600286600001516040516119279190612a9a565b90815260200160405180910390206001015490506000606482866040015161194f9190612bac565b6119599190612c1d565b905080856040015161196b9190612c4e565b92508293505050611986565b82604001519150826040015190505b813410156119c9576040517f08c379a00000000000000000000000000000000000000000000000000000000081526004016119c09061336f565b60405180910390fd5b6000600160009054906101000a900473ffffffffffffffffffffffffffffffffffffffff1673ffffffffffffffffffffffffffffffffffffffff1634604051611a1190612dd7565b60006040518083038185875af1925050503d8060008114611a4e576040519150601f19603f3d011682016040523d82523d6000602084013e611a53565b606091505b5050905080611a97576040517f08c379a0000000000000000000000000000000000000000000000000000000008152600401611a8e90612e38565b60405180910390fd5b600560003373ffffffffffffffffffffffffffffffffffffffff1673ffffffffffffffffffffffffffffffffffffffff1681526020019081526020016000206040518060a001604052808a815260200186604001518152602001848760400151611b019190612c4e565b81526020018481526020014281525090806001815401808255809150506001900390600052602060002090600502016000909190919091506000820151816000019081611b4e9190613038565b506020820151816001015560408201518160020155606082015181600301556080820151816004015550503373ffffffffffffffffffffffffffffffffffffffff167f6222b6c159636bc3f0d607116a780ae56f7136a883d64084edd0edd46b5a39ed89848760400151611bc29190612c4e565b85604051611bd29392919061310a565b60405180910390a25050505050505050565b60056020528160005260406000208181548110611c0057600080fd5b906000526020600020906005020160009150915050806000018054611c2490612b4c565b80601f0160208091040260200160405190810160405280929190818152602001828054611c5090612b4c565b8015611c9d5780601f10611c7257610100808354040283529160200191611c9d565b820191906000526020600020905b815481529060010190602001808311611c8057829003601f168201915b5050505050908060010154908060020154908060030154908060040154905085565b60008054906101000a900473ffffffffffffffffffffffffffffffffffffffff1673ffffffffffffffffffffffffffffffffffffffff163373ffffffffffffffffffffffffffffffffffffffff1614611d4d576040517f08c379a0000000000000000000000000000000000000000000000000000000008152600401611d44906132dd565b60405180910390fd5b611d5984848484611f94565b50505050565b60606000806000806000600460008873ffffffffffffffffffffffffffffffffffffffff1673ffffffffffffffffffffffffffffffffffffffff168152602001908152602001600020604051806080016040529081600082018054611dc390612b4c565b80601f0160208091040260200160405190810160405280929190818152602001828054611def90612b4c565b8015611e3c5780601f10611e1157610100808354040283529160200191611e3c565b820191906000526020600020905b815481529060010190602001808311611e1f57829003601f168201915b5050505050815260200160018201548152602001600282015481526020016003820160009054906101000a900460ff1615151515815250509050600081606001518015611e8d575042826040015110155b905081600001518260200151836040015184606001518496509650965096509650505091939590929450565b604051806080016040528084815260200183815260200182815260200160011515815250600384604051611eed9190612a9a565b90815260200160405180910390206000820151816000019081611f109190613038565b506020820151816001019081611f269190613038565b506040820151816002015560608201518160030160006101000a81548160ff0219169083151502179055509050507f046dd1a41657eaa65ad2eeefdfbb46a64931e27005eacb993208ccdcf0b5a3c8838383604051611f879392919061264c565b60405180910390a1505050565b6040518060a0016040528085815260200184815260200183815260200182815260200160011515815250600285604051611fce9190612a9a565b90815260200160405180910390206000820151816000019081611ff19190613038565b5060208201518160010155604082015181600201556060820151816003015560808201518160040160006101000a81548160ff0219169083151502179055509050507faeeb89adcaac17eaddcd7f45eeb705b6e4c205a23d0ce589f03f800a7e09c7f984848484604051612068949392919061338f565b60405180910390a150505050565b6040518060a00160405280606081526020016000815260200160008152602001600081526020016000151581525090565b6000604051905090565b600080fd5b600080fd5b600080fd5b600080fd5b6000601f19601f8301169050919050565b7f4e487b7100000000000000000000000000000000000000000000000000000000600052604160045260246000fd5b61210e826120c5565b810181811067ffffffffffffffff8211171561212d5761212c6120d6565b5b80604052505050565b60006121406120a7565b905061214c8282612105565b919050565b600067ffffffffffffffff82111561216c5761216b6120d6565b5b612175826120c5565b9050602081019050919050565b82818337600083830152505050565b60006121a461219f84612151565b612136565b9050828152602081018484840111156121c0576121bf6120c0565b5b6121cb848285612182565b509392505050565b600082601f8301126121e8576121e76120bb565b5b81356121f8848260208601612191565b91505092915050565b600073ffffffffffffffffffffffffffffffffffffffff82169050919050565b600061222c82612201565b9050919050565b61223c81612221565b811461224757600080fd5b50565b60008135905061225981612233565b92915050565b60008060408385031215612276576122756120b1565b5b600083013567ffffffffffffffff811115612294576122936120b6565b5b6122a0858286016121d3565b92505060206122b18582860161224a565b9150509250929050565b6000819050919050565b6122ce816122bb565b82525050565b60008115159050919050565b6122e9816122d4565b82525050565b600060808201905061230460008301876122c5565b61231160208301866122c5565b61231e60408301856122c5565b61232b60608301846122e0565b95945050505050565b60006020828403121561234a576123496120b1565b5b60006123588482850161224a565b91505092915050565b600081519050919050565b600082825260208201905092915050565b60005b8381101561239b578082015181840152602081019050612380565b60008484015250505050565b60006123b282612361565b6123bc818561236c565b93506123cc81856020860161237d565b6123d5816120c5565b840191505092915050565b600060808201905081810360008301526123fa81876123a7565b905061240960208301866122c5565b61241660408301856122c5565b61242360608301846122e0565b95945050505050565b600060208284031215612442576124416120b1565b5b600082013567ffffffffffffffff8111156124605761245f6120b6565b5b61246c848285016121d3565b91505092915050565b600060a082019050818103600083015261248f81886123a7565b905061249e60208301876122c5565b6124ab60408301866122c5565b6124b860608301856122c5565b6124c560808301846122e0565b9695505050505050565b600060808201905081810360008301526124e981876123a7565b905081810360208301526124fd81866123a7565b905061250c60408301856122c5565b61251960608301846122e0565b95945050505050565b600082825260208201905092915050565b600061253e82612361565b6125488185612522565b935061255881856020860161237d565b612561816120c5565b840191505092915050565b612575816122bb565b82525050565b612584816122d4565b82525050565b600060a08301600083015184820360008601526125a78282612533565b91505060208301516125bc602086018261256c565b5060408301516125cf604086018261256c565b5060608301516125e2606086018261256c565b5060808301516125f5608086018261257b565b508091505092915050565b6000606082019050818103600083015261261a818661258a565b9050818103602083015261262e818561258a565b90508181036040830152612642818461258a565b9050949350505050565b6000606082019050818103600083015261266681866123a7565b9050818103602083015261267a81856123a7565b905061268960408301846122c5565b949350505050565b61269a81612221565b82525050565b60006020820190506126b56000830184612691565b92915050565b60006020820190506126d060008301846122e0565b92915050565b6126df816122bb565b81146126ea57600080fd5b50565b6000813590506126fc816126d6565b92915050565b60008060006060848603121561271b5761271a6120b1565b5b600084013567ffffffffffffffff811115612739576127386120b6565b5b612745868287016121d3565b935050602084013567ffffffffffffffff811115612766576127656120b6565b5b612772868287016121d3565b9250506040612783868287016126ed565b9150509250925092565b600081519050919050565b600082825260208201905092915050565b6000819050602082019050919050565b600060a08301600083015184820360008601526127d68282612533565b91505060208301516127eb602086018261256c565b5060408301516127fe604086018261256c565b506060830151612811606086018261256c565b506080830151612824608086018261256c565b508091505092915050565b600061283b83836127b9565b905092915050565b6000602082019050919050565b600061285b8261278d565b6128658185612798565b935083602082028501612877856127a9565b8060005b858110156128b35784840389528151612894858261282f565b945061289f83612843565b925060208a0199505060018101905061287b565b50829750879550505050505092915050565b600060208201905081810360008301526128df8184612850565b905092915050565b600080604083850312156128fe576128fd6120b1565b5b600061290c8582860161224a565b925050602061291d858286016126ed565b9150509250929050565b600060a082019050818103600083015261294181886123a7565b905061295060208301876122c5565b61295d60408301866122c5565b61296a60608301856122c5565b61297760808301846122c5565b9695505050505050565b6000806000806080858703121561299b5761299a6120b1565b5b600085013567ffffffffffffffff8111156129b9576129b86120b6565b5b6129c5878288016121d3565b94505060206129d6878288016126ed565b93505060406129e7878288016126ed565b92505060606129f8878288016126ed565b91505092959194509250565b600060a0820190508181036000830152612a1e81886123a7565b9050612a2d60208301876122c5565b612a3a60408301866122c5565b612a4760608301856122e0565b612a5460808301846122e0565b9695505050505050565b600081905092915050565b6000612a7482612361565b612a7e8185612a5e565b9350612a8e81856020860161237d565b80840191505092915050565b6000612aa68284612a69565b915081905092915050565b7f4d656469636174696f6e20646f6573206e6f7420657869737400000000000000600082015250565b6000612ae760198361236c565b9150612af282612ab1565b602082019050919050565b60006020820190508181036000830152612b1681612ada565b9050919050565b7f4e487b7100000000000000000000000000000000000000000000000000000000600052602260045260246000fd5b60006002820490506001821680612b6457607f821691505b602082108103612b7757612b76612b1d565b5b50919050565b7f4e487b7100000000000000000000000000000000000000000000000000000000600052601160045260246000fd5b6000612bb7826122bb565b9150612bc2836122bb565b9250828202612bd0816122bb565b91508282048414831517612be757612be6612b7d565b5b5092915050565b7f4e487b7100000000000000000000000000000000000000000000000000000000600052601260045260246000fd5b6000612c28826122bb565b9150612c33836122bb565b925082612c4357612c42612bee565b5b828204905092915050565b6000612c59826122bb565b9150612c64836122bb565b9250828203905081811115612c7c57612c7b612b7d565b5b92915050565b7f496e737572616e636520706c616e20646f6573206e6f74206578697374206f7260008201527f206973206e6f7420616374697665000000000000000000000000000000000000602082015250565b6000612cde602e8361236c565b9150612ce982612c82565b604082019050919050565b60006020820190508181036000830152612d0d81612cd1565b9050919050565b7f496e73756666696369656e74207061796d656e7420666f7220696e737572616e60008201527f636520706c616e00000000000000000000000000000000000000000000000000602082015250565b6000612d7060278361236c565b9150612d7b82612d14565b604082019050919050565b60006020820190508181036000830152612d9f81612d63565b9050919050565b600081905092915050565b50565b6000612dc1600083612da6565b9150612dcc82612db1565b600082019050919050565b6000612de282612db4565b9150819050919050565b7f5472616e73666572206661696c65640000000000000000000000000000000000600082015250565b6000612e22600f8361236c565b9150612e2d82612dec565b602082019050919050565b60006020820190508181036000830152612e5181612e15565b9050919050565b6000612e63826122bb565b9150612e6e836122bb565b9250828201905080821115612e8657612e85612b7d565b5b92915050565b60008190508160005260206000209050919050565b60006020601f8301049050919050565b600082821b905092915050565b600060088302612eee7fffffffffffffffffffffffffffffffffffffffffffffffffffffffffffffffff82612eb1565b612ef88683612eb1565b95508019841693508086168417925050509392505050565b6000819050919050565b6000612f35612f30612f2b846122bb565b612f10565b6122bb565b9050919050565b6000819050919050565b612f4f83612f1a565b612f63612f5b82612f3c565b848454612ebe565b825550505050565b600090565b612f78612f6b565b612f83818484612f46565b505050565b5b81811015612fa757612f9c600082612f70565b600181019050612f89565b5050565b601f821115612fec57612fbd81612e8c565b612fc684612ea1565b81016020851015612fd5578190505b612fe9612fe185612ea1565b830182612f88565b50505b505050565b600082821c905092915050565b600061300f60001984600802612ff1565b1980831691505092915050565b60006130288383612ffe565b9150826002028217905092915050565b61304182612361565b67ffffffffffffffff81111561305a576130596120d6565b5b6130648254612b4c565b61306f828285612fab565b600060209050601f8311600181146130a25760008415613090578287015190505b61309a858261301c565b865550613102565b601f1984166130b086612e8c565b60005b828110156130d8578489015182556001820191506020850194506020810190506130b3565b868310156130f557848901516130f1601f891682612ffe565b8355505b6001600288020188555050505b505050505050565b6000606082019050818103600083015261312481866123a7565b905061313360208301856122c5565b61314060408301846122c5565b949350505050565b7f4261736963000000000000000000000000000000000000000000000000000000600082015250565b600061317e600583612a5e565b915061318982613148565b600582019050919050565b600061319f82613171565b9150819050919050565b7f5374616e64617264000000000000000000000000000000000000000000000000600082015250565b60006131df600883612a5e565b91506131ea826131a9565b600882019050919050565b6000613200826131d2565b9150819050919050565b7f5072656d69756d00000000000000000000000000000000000000000000000000600082015250565b6000613240600783612a5e565b915061324b8261320a565b600782019050919050565b600061326182613233565b9150819050919050565b7f4f6e6c79206f776e65722063616e2063616c6c20746869732066756e6374696f60008201527f6e00000000000000000000000000000000000000000000000000000000000000602082015250565b60006132c760218361236c565b91506132d28261326b565b604082019050919050565b600060208201905081810360008301526132f6816132ba565b9050919050565b7f496e73756666696369656e74207061796d656e7420666f72206d65646963617460008201527f696f6e0000000000000000000000000000000000000000000000000000000000602082015250565b600061335960238361236c565b9150613364826132fd565b604082019050919050565b600060208201905081810360008301526133888161334c565b9050919050565b600060808201905081810360008301526133a981876123a7565b90506133b860208301866122c5565b6133c560408301856122c5565b6133d260608301846122c5565b9594505050505056fea2646970667358221220af7c47d9b64580e8d814a539903cf5ffd5757936f8f50ef6d687ba7a064078e664736f6c63430008130033",
  "linkReferences": {},
  "deployedLinkReferences": {}
}